{
  "address": "0x8a39faaFeC1eA96c3025e2041D008b8394D6E4e6",
  "abi": [
    {
      "inputs": [
        {
          "internalType": "address",
          "name": "priceFeedAddress",
          "type": "address"
        }
      ],
      "stateMutability": "nonpayable",
      "type": "constructor"
    },
    {
      "inputs": [],
      "name": "FundMe__NotOwner",
      "type": "error"
    },
    {
      "stateMutability": "payable",
      "type": "fallback"
    },
    {
      "inputs": [],
      "name": "MINIMUM_USD",
      "outputs": [
        {
          "internalType": "uint256",
          "name": "",
          "type": "uint256"
        }
      ],
      "stateMutability": "view",
      "type": "function"
    },
    {
      "inputs": [
        {
          "internalType": "address",
          "name": "",
          "type": "address"
        }
      ],
      "name": "addressToAmount",
      "outputs": [
        {
          "internalType": "uint256",
          "name": "",
          "type": "uint256"
        }
      ],
      "stateMutability": "view",
      "type": "function"
    },
    {
      "inputs": [],
      "name": "fund",
      "outputs": [],
      "stateMutability": "payable",
      "type": "function"
    },
    {
      "inputs": [
        {
          "internalType": "uint256",
          "name": "",
          "type": "uint256"
        }
      ],
      "name": "funders",
      "outputs": [
        {
          "internalType": "address",
          "name": "",
          "type": "address"
        }
      ],
      "stateMutability": "view",
      "type": "function"
    },
    {
      "inputs": [],
      "name": "getPriceFeed",
      "outputs": [
        {
          "internalType": "contract AggregatorV3Interface",
          "name": "",
          "type": "address"
        }
      ],
      "stateMutability": "view",
      "type": "function"
    },
    {
      "inputs": [],
      "name": "i_owner",
      "outputs": [
        {
          "internalType": "address",
          "name": "",
          "type": "address"
        }
      ],
      "stateMutability": "view",
      "type": "function"
    },
    {
      "inputs": [],
      "name": "priceFeed",
      "outputs": [
        {
          "internalType": "contract AggregatorV3Interface",
          "name": "",
          "type": "address"
        }
      ],
      "stateMutability": "view",
      "type": "function"
    },
    {
      "inputs": [],
      "name": "withdraw",
      "outputs": [],
      "stateMutability": "nonpayable",
      "type": "function"
    },
    {
      "stateMutability": "payable",
      "type": "receive"
    }
  ],
  "transactionHash": "0xa81244c882232ea9291af9e9802f9fe100b942d7ad675ef7ca4c801b3e579e5d",
  "args": [
    "0x694AA1769357215DE4FAC081bf1f309aDC325306"
  ],
  "numDeployments": 2,
  "solcInputHash": "5003e8468639d02a019606a1f480f012",
  "bytecode": "0x60a060405234801561001057600080fd5b5060405162000fde38038062000fde83398181016040528101906100349190610115565b80600260006101000a81548173ffffffffffffffffffffffffffffffffffffffff021916908373ffffffffffffffffffffffffffffffffffffffff1602179055503373ffffffffffffffffffffffffffffffffffffffff1660808173ffffffffffffffffffffffffffffffffffffffff1660601b8152505050610142565b600080fd5b600073ffffffffffffffffffffffffffffffffffffffff82169050919050565b60006100e2826100b7565b9050919050565b6100f2816100d7565b81146100fd57600080fd5b50565b60008151905061010f816100e9565b92915050565b60006020828403121561012b5761012a6100b2565b5b600061013984828501610100565b91505092915050565b60805160601c610e76620001686000396000818161032101526105bd0152610e766000f3fe60806040526004361061007f5760003560e01c80639e87a5cd1161004e5780639e87a5cd14610142578063b60d42881461016d578063dba6335f14610177578063dc0d3dff146101a25761008e565b80633c7e7d28146100985780633ccfd60b146100d55780636b69a592146100ec578063741bef1a146101175761008e565b3661008e5761008c6101df565b005b6100966101df565b005b3480156100a457600080fd5b506100bf60048036038101906100ba9190610804565b610307565b6040516100cc919061084a565b60405180910390f35b3480156100e157600080fd5b506100ea61031f565b005b3480156100f857600080fd5b5061010161055f565b60405161010e919061084a565b60405180910390f35b34801561012357600080fd5b5061012c61056b565b60405161013991906108c4565b60405180910390f35b34801561014e57600080fd5b50610157610591565b60405161016491906108c4565b60405180910390f35b6101756101df565b005b34801561018357600080fd5b5061018c6105bb565b60405161019991906108ee565b60405180910390f35b3480156101ae57600080fd5b506101c960048036038101906101c49190610935565b6105df565b6040516101d691906108ee565b60405180910390f35b674563918244f4000061021d600260009054906101000a900473ffffffffffffffffffffffffffffffffffffffff163461061e90919063ffffffff16565b101561025e576040517f08c379a0000000000000000000000000000000000000000000000000000000008152600401610255906109bf565b60405180910390fd5b6000339080600181540180825580915050600190039060005260206000200160009091909190916101000a81548173ffffffffffffffffffffffffffffffffffffffff021916908373ffffffffffffffffffffffffffffffffffffffff16021790555034600160003373ffffffffffffffffffffffffffffffffffffffff1673ffffffffffffffffffffffffffffffffffffffff16815260200190815260200160002081905550565b60016020528060005260406000206000915090505481565b7f000000000000000000000000000000000000000000000000000000000000000073ffffffffffffffffffffffffffffffffffffffff163373ffffffffffffffffffffffffffffffffffffffff16146103a4576040517f579610db00000000000000000000000000000000000000000000000000000000815260040160405180910390fd5b60005b60008054905081101561044f5760008082815481106103c9576103c86109df565b5b9060005260206000200160009054906101000a900473ffffffffffffffffffffffffffffffffffffffff1690506000600160008373ffffffffffffffffffffffffffffffffffffffff1673ffffffffffffffffffffffffffffffffffffffff1681526020019081526020016000208190555050808061044790610a3d565b9150506103a7565b50600067ffffffffffffffff81111561046b5761046a610a86565b5b6040519080825280602002602001820160405280156104995781602001602082028036833780820191505090505b50600090805190602001906104af9291906106fa565b5060003373ffffffffffffffffffffffffffffffffffffffff16476040516104d690610ae6565b60006040518083038185875af1925050503d8060008114610513576040519150601f19603f3d011682016040523d82523d6000602084013e610518565b606091505b505090508061055c576040517f08c379a000000000000000000000000000000000000000000000000000000000815260040161055390610b47565b60405180910390fd5b50565b674563918244f4000081565b600260009054906101000a900473ffffffffffffffffffffffffffffffffffffffff1681565b6000600260009054906101000a900473ffffffffffffffffffffffffffffffffffffffff16905090565b7f000000000000000000000000000000000000000000000000000000000000000081565b600081815481106105ef57600080fd5b906000526020600020016000915054906101000a900473ffffffffffffffffffffffffffffffffffffffff1681565b60008061062a8361065a565b90506000670de0b6b3a764000085836106439190610b67565b61064d9190610bf0565b9050809250505092915050565b6000808273ffffffffffffffffffffffffffffffffffffffff1663feaf968c6040518163ffffffff1660e01b815260040160a06040518083038186803b1580156106a357600080fd5b505afa1580156106b7573d6000803e3d6000fd5b505050506040513d601f19601f820116820180604052508101906106db9190610cae565b5050509150506402540be400816106f29190610d29565b915050919050565b828054828255906000526020600020908101928215610773579160200282015b828111156107725782518260006101000a81548173ffffffffffffffffffffffffffffffffffffffff021916908373ffffffffffffffffffffffffffffffffffffffff1602179055509160200191906001019061071a565b5b5090506107809190610784565b5090565b5b8082111561079d576000816000905550600101610785565b5090565b600080fd5b600073ffffffffffffffffffffffffffffffffffffffff82169050919050565b60006107d1826107a6565b9050919050565b6107e1816107c6565b81146107ec57600080fd5b50565b6000813590506107fe816107d8565b92915050565b60006020828403121561081a576108196107a1565b5b6000610828848285016107ef565b91505092915050565b6000819050919050565b61084481610831565b82525050565b600060208201905061085f600083018461083b565b92915050565b6000819050919050565b600061088a610885610880846107a6565b610865565b6107a6565b9050919050565b600061089c8261086f565b9050919050565b60006108ae82610891565b9050919050565b6108be816108a3565b82525050565b60006020820190506108d960008301846108b5565b92915050565b6108e8816107c6565b82525050565b600060208201905061090360008301846108df565b92915050565b61091281610831565b811461091d57600080fd5b50565b60008135905061092f81610909565b92915050565b60006020828403121561094b5761094a6107a1565b5b600061095984828501610920565b91505092915050565b600082825260208201905092915050565b7f4469646e27742073656e6420656e6f7567680000000000000000000000000000600082015250565b60006109a9601283610962565b91506109b482610973565b602082019050919050565b600060208201905081810360008301526109d88161099c565b9050919050565b7f4e487b7100000000000000000000000000000000000000000000000000000000600052603260045260246000fd5b7f4e487b7100000000000000000000000000000000000000000000000000000000600052601160045260246000fd5b6000610a4882610831565b91507fffffffffffffffffffffffffffffffffffffffffffffffffffffffffffffffff821415610a7b57610a7a610a0e565b5b600182019050919050565b7f4e487b7100000000000000000000000000000000000000000000000000000000600052604160045260246000fd5b600081905092915050565b50565b6000610ad0600083610ab5565b9150610adb82610ac0565b600082019050919050565b6000610af182610ac3565b9150819050919050565b7f5472616e73666572206661696c65640000000000000000000000000000000000600082015250565b6000610b31600f83610962565b9150610b3c82610afb565b602082019050919050565b60006020820190508181036000830152610b6081610b24565b9050919050565b6000610b7282610831565b9150610b7d83610831565b9250817fffffffffffffffffffffffffffffffffffffffffffffffffffffffffffffffff0483118215151615610bb657610bb5610a0e565b5b828202905092915050565b7f4e487b7100000000000000000000000000000000000000000000000000000000600052601260045260246000fd5b6000610bfb82610831565b9150610c0683610831565b925082610c1657610c15610bc1565b5b828204905092915050565b600069ffffffffffffffffffff82169050919050565b610c4081610c21565b8114610c4b57600080fd5b50565b600081519050610c5d81610c37565b92915050565b6000819050919050565b610c7681610c63565b8114610c8157600080fd5b50565b600081519050610c9381610c6d565b92915050565b600081519050610ca881610909565b92915050565b600080600080600060a08688031215610cca57610cc96107a1565b5b6000610cd888828901610c4e565b9550506020610ce988828901610c84565b9450506040610cfa88828901610c99565b9350506060610d0b88828901610c99565b9250506080610d1c88828901610c4e565b9150509295509295909350565b6000610d3482610c63565b9150610d3f83610c63565b9250827f7fffffffffffffffffffffffffffffffffffffffffffffffffffffffffffffff0482116000841360008413161615610d7e57610d7d610a0e565b5b817f80000000000000000000000000000000000000000000000000000000000000000583126000841260008413161615610dbb57610dba610a0e565b5b827f80000000000000000000000000000000000000000000000000000000000000000582126000841360008412161615610df857610df7610a0e565b5b827f7fffffffffffffffffffffffffffffffffffffffffffffffffffffffffffffff0582126000841260008412161615610e3557610e34610a0e565b5b82820290509291505056fea2646970667358221220461722b0e86c0c4055435e41e52ac12e9b5bcc007007a4cf72c64f4432a39b2064736f6c63430008080033",
  "devdoc": {
    "author": "Alior",
    "details": "This is implementing hardhat library",
    "kind": "dev",
    "methods": {},
    "title": "A contract for crowdfunding",
    "version": 1
  },
  "userdoc": {
    "kind": "user",
    "methods": {
      "fund()": {
        "notice": "This function funds the contract"
      }
    },
    "notice": "This is only for training purposes",
    "version": 1
  },
  "storageLayout": {
    "storage": [
      {
        "astId": 62,
        "contract": "contracts/FundMe.sol:FundMe",
        "label": "funders",
        "offset": 0,
        "slot": "0",
        "type": "t_array(t_address)dyn_storage"
      },
      {
        "astId": 66,
        "contract": "contracts/FundMe.sol:FundMe",
        "label": "addressToAmount",
        "offset": 0,
        "slot": "1",
        "type": "t_mapping(t_address,t_uint256)"
      },
      {
        "astId": 71,
        "contract": "contracts/FundMe.sol:FundMe",
        "label": "priceFeed",
        "offset": 0,
        "slot": "2",
        "type": "t_contract(AggregatorV3Interface)45"
      }
    ],
    "types": {
      "t_address": {
        "encoding": "inplace",
        "label": "address",
        "numberOfBytes": "20"
      },
      "t_array(t_address)dyn_storage": {
        "base": "t_address",
        "encoding": "dynamic_array",
        "label": "address[]",
        "numberOfBytes": "32"
      },
      "t_contract(AggregatorV3Interface)45": {
        "encoding": "inplace",
        "label": "contract AggregatorV3Interface",
        "numberOfBytes": "20"
      },
      "t_mapping(t_address,t_uint256)": {
        "encoding": "mapping",
        "key": "t_address",
        "label": "mapping(address => uint256)",
        "numberOfBytes": "32",
        "value": "t_uint256"
      },
      "t_uint256": {
        "encoding": "inplace",
        "label": "uint256",
        "numberOfBytes": "32"
      }
    }
  }
}